{
  "transactions": [
    {
      "hash": "0x5d43781aa3bc3eb522ade45ca303fa735e98507932526e52ca86b058ac962d47",
      "transactionType": "CALL",
      "contractName": null,
      "contractAddress": "0xf0a261ccc53f2a09cd68c1159d98bf8168502689",
      "function": "mint(address,uint256)",
      "arguments": [
        "0x7587088e5b143Eff54A4015c30c9d297D26Cf525",
        "1000000000000000000000"
      ],
      "transaction": {
        "from": "0x7587088e5b143eff54a4015c30c9d297d26cf525",
        "to": "0xf0a261ccc53f2a09cd68c1159d98bf8168502689",
        "gas": "0x2b37e",
        "value": "0x0",
        "input": "0x40c10f190000000000000000000000007587088e5b143eff54a4015c30c9d297d26cf52500000000000000000000000000000000000000000000003635c9adc5dea00000",
        "nonce": "0x307",
        "chainId": "0x89"
      },
      "additionalContracts": [],
      "isFixedGasLimit": false
    }
  ],
  "receipts": [
    {
      "status": "0x1",
      "cumulativeGasUsed": "0x40c74a",
      "logs": [
        {
          "address": "0xf0a261ccc53f2a09cd68c1159d98bf8168502689",
          "topics": [
            "0xddf252ad1be2c89b69c2b068fc378daa952ba7f163c4a11628f55a4df523b3ef",
            "0x0000000000000000000000000000000000000000000000000000000000000000",
            "0x0000000000000000000000007587088e5b143eff54a4015c30c9d297d26cf525"
          ],
          "data": "0x00000000000000000000000000000000000000000000003635c9adc5dea00000",
          "blockHash": "0x5868507e5e49104c30db2709794a586bef2130630b0d4f319fe84dfa42cd7f86",
          "blockNumber": "0x43dc9e8",
          "transactionHash": "0x5d43781aa3bc3eb522ade45ca303fa735e98507932526e52ca86b058ac962d47",
          "transactionIndex": "0x21",
          "logIndex": "0xa5",
          "removed": false
        },
        {
          "address": "0xf0a261ccc53f2a09cd68c1159d98bf8168502689",
          "topics": [
            "0x30385c845b448a36257a6a1716e6ad2e1bc2cbe333cde1e69fe849ad6511adfe",
            "0x0000000000000000000000007587088e5b143eff54a4015c30c9d297d26cf525"
          ],
          "data": "0x00000000000000000000000000000000000000000000003635c9adc5dea00000",
          "blockHash": "0x5868507e5e49104c30db2709794a586bef2130630b0d4f319fe84dfa42cd7f86",
          "blockNumber": "0x43dc9e8",
          "transactionHash": "0x5d43781aa3bc3eb522ade45ca303fa735e98507932526e52ca86b058ac962d47",
          "transactionIndex": "0x21",
          "logIndex": "0xa6",
          "removed": false
        },
        {
          "address": "0x0000000000000000000000000000000000001010",
          "topics": [
            "0x4dfe1bbbcf077ddc3e01291eea2d5c70c2b422b415d95645b9adcfd678cb1d63",
            "0x0000000000000000000000000000000000000000000000000000000000001010",
            "0x0000000000000000000000007587088e5b143eff54a4015c30c9d297d26cf525",
            "0x0000000000000000000000001efecb61a2f80aa34d3b9218b564a64d05946290"
          ],
          "data": "0x000000000000000000000000000000000000000000000000000cc2418a52e4af000000000000000000000000000000000000000000000001088d294372add0730000000000000000000000000000000000000000000035a532249b00620c8bbf00000000000000000000000000000000000000000000000108806701e85aebc40000000000000000000000000000000000000000000035a532315d41ec5f706e",
          "blockHash": "0x5868507e5e49104c30db2709794a586bef2130630b0d4f319fe84dfa42cd7f86",
          "blockNumber": "0x43dc9e8",
          "transactionHash": "0x5d43781aa3bc3eb522ade45ca303fa735e98507932526e52ca86b058ac962d47",
          "transactionIndex": "0x21",
          "logIndex": "0xa7",
          "removed": false
        }
      ],
      "logsBloom": "0x00000000000000000000000000000000000000000020000000000000000000020000000000000000000000000000000000008040080000000000000000000000200000000000000000000008000000800000000000000000000100000000000000000000020000000000000000000800000000000000000080000010000000000000000000000000000000000000000000000000000000000000000000000000200000000000000000000000000000000000000000000000000000000000004000000102000040000001000000000000000000000040000000100000400020002000000000020000000000000000000000000000000000000000000000100000",
      "type": "0x0",
      "transactionHash": "0x5d43781aa3bc3eb522ade45ca303fa735e98507932526e52ca86b058ac962d47",
      "transactionIndex": "0x21",
      "blockHash": "0x5868507e5e49104c30db2709794a586bef2130630b0d4f319fe84dfa42cd7f86",
      "blockNumber": "0x43dc9e8",
      "gasUsed": "0x1d8d1",
      "effectiveGasPrice": "0x6e8784598",
      "from": "0x7587088e5b143eff54a4015c30c9d297d26cf525",
      "to": "0xf0a261ccc53f2a09cd68c1159d98bf8168502689",
      "contractAddress": null
    }
  ],
  "libraries": [],
  "pending": [],
  "returns": {},
  "timestamp": 1746484238,
  "chain": 137,
  "commit": "7c0a859"
}